{
  "contractName": "StudentRecordNFT",
  "abi": [
    {
      "inputs": [],
      "stateMutability": "nonpayable",
      "type": "constructor"
    },
    {
      "inputs": [],
      "name": "AccessControlBadConfirmation",
      "type": "error"
    },
    {
      "inputs": [
        {
          "internalType": "address",
          "name": "account",
          "type": "address"
        },
        {
          "internalType": "bytes32",
          "name": "neededRole",
          "type": "bytes32"
        }
      ],
      "name": "AccessControlUnauthorizedAccount",
      "type": "error"
    },
    {
      "inputs": [
        {
          "internalType": "address",
          "name": "sender",
          "type": "address"
        },
        {
          "internalType": "uint256",
          "name": "tokenId",
          "type": "uint256"
        },
        {
          "internalType": "address",
          "name": "owner",
          "type": "address"
        }
      ],
      "name": "ERC721IncorrectOwner",
      "type": "error"
    },
    {
      "inputs": [
        {
          "internalType": "address",
          "name": "operator",
          "type": "address"
        },
        {
          "internalType": "uint256",
          "name": "tokenId",
          "type": "uint256"
        }
      ],
      "name": "ERC721InsufficientApproval",
      "type": "error"
    },
    {
      "inputs": [
        {
          "internalType": "address",
          "name": "approver",
          "type": "address"
        }
      ],
      "name": "ERC721InvalidApprover",
      "type": "error"
    },
    {
      "inputs": [
        {
          "internalType": "address",
          "name": "operator",
          "type": "address"
        }
      ],
      "name": "ERC721InvalidOperator",
      "type": "error"
    },
    {
      "inputs": [
        {
          "internalType": "address",
          "name": "owner",
          "type": "address"
        }
      ],
      "name": "ERC721InvalidOwner",
      "type": "error"
    },
    {
      "inputs": [
        {
          "internalType": "address",
          "name": "receiver",
          "type": "address"
        }
      ],
      "name": "ERC721InvalidReceiver",
      "type": "error"
    },
    {
      "inputs": [
        {
          "internalType": "address",
          "name": "sender",
          "type": "address"
        }
      ],
      "name": "ERC721InvalidSender",
      "type": "error"
    },
    {
      "inputs": [
        {
          "internalType": "uint256",
          "name": "tokenId",
          "type": "uint256"
        }
      ],
      "name": "ERC721NonexistentToken",
      "type": "error"
    },
    {
      "anonymous": false,
      "inputs": [
        {
          "indexed": true,
          "internalType": "address",
          "name": "owner",
          "type": "address"
        },
        {
          "indexed": true,
          "internalType": "address",
          "name": "approved",
          "type": "address"
        },
        {
          "indexed": true,
          "internalType": "uint256",
          "name": "tokenId",
          "type": "uint256"
        }
      ],
      "name": "Approval",
      "type": "event"
    },
    {
      "anonymous": false,
      "inputs": [
        {
          "indexed": true,
          "internalType": "address",
          "name": "owner",
          "type": "address"
        },
        {
          "indexed": true,
          "internalType": "address",
          "name": "operator",
          "type": "address"
        },
        {
          "indexed": false,
          "internalType": "bool",
          "name": "approved",
          "type": "bool"
        }
      ],
      "name": "ApprovalForAll",
      "type": "event"
    },
    {
      "anonymous": false,
      "inputs": [
        {
          "indexed": true,
          "internalType": "uint256",
          "name": "tokenId",
          "type": "uint256"
        },
        {
          "indexed": true,
          "internalType": "address",
          "name": "recipient",
          "type": "address"
        },
        {
          "indexed": true,
          "internalType": "address",
          "name": "issuer",
          "type": "address"
        },
        {
          "indexed": false,
          "internalType": "enum StudentRecordNFT.CredentialType",
          "name": "ctype",
          "type": "uint8"
        },
        {
          "indexed": false,
          "internalType": "string",
          "name": "title",
          "type": "string"
        },
        {
          "indexed": false,
          "internalType": "uint64",
          "name": "issueDate",
          "type": "uint64"
        }
      ],
      "name": "CredentialIssued",
      "type": "event"
    },
    {
      "anonymous": false,
      "inputs": [
        {
          "indexed": true,
          "internalType": "uint256",
          "name": "tokenId",
          "type": "uint256"
        },
        {
          "indexed": true,
          "internalType": "address",
          "name": "revokedBy",
          "type": "address"
        },
        {
          "indexed": false,
          "internalType": "string",
          "name": "reason",
          "type": "string"
        },
        {
          "indexed": false,
          "internalType": "uint64",
          "name": "revokedAt",
          "type": "uint64"
        }
      ],
      "name": "CredentialRevoked",
      "type": "event"
    },
    {
      "anonymous": false,
      "inputs": [
        {
          "indexed": true,
          "internalType": "bytes32",
          "name": "role",
          "type": "bytes32"
        },
        {
          "indexed": true,
          "internalType": "bytes32",
          "name": "previousAdminRole",
          "type": "bytes32"
        },
        {
          "indexed": true,
          "internalType": "bytes32",
          "name": "newAdminRole",
          "type": "bytes32"
        }
      ],
      "name": "RoleAdminChanged",
      "type": "event"
    },
    {
      "anonymous": false,
      "inputs": [
        {
          "indexed": true,
          "internalType": "bytes32",
          "name": "role",
          "type": "bytes32"
        },
        {
          "indexed": true,
          "internalType": "address",
          "name": "account",
          "type": "address"
        },
        {
          "indexed": true,
          "internalType": "address",
          "name": "sender",
          "type": "address"
        }
      ],
      "name": "RoleGranted",
      "type": "event"
    },
    {
      "anonymous": false,
      "inputs": [
        {
          "indexed": true,
          "internalType": "bytes32",
          "name": "role",
          "type": "bytes32"
        },
        {
          "indexed": true,
          "internalType": "address",
          "name": "account",
          "type": "address"
        },
        {
          "indexed": true,
          "internalType": "address",
          "name": "sender",
          "type": "address"
        }
      ],
      "name": "RoleRevoked",
      "type": "event"
    },
    {
      "anonymous": false,
      "inputs": [
        {
          "indexed": true,
          "internalType": "address",
          "name": "from",
          "type": "address"
        },
        {
          "indexed": true,
          "internalType": "address",
          "name": "to",
          "type": "address"
        },
        {
          "indexed": true,
          "internalType": "uint256",
          "name": "tokenId",
          "type": "uint256"
        }
      ],
      "name": "Transfer",
      "type": "event"
    },
    {
      "inputs": [],
      "name": "DEFAULT_ADMIN_ROLE",
      "outputs": [
        {
          "internalType": "bytes32",
          "name": "",
          "type": "bytes32"
        }
      ],
      "stateMutability": "view",
      "type": "function"
    },
    {
      "inputs": [],
      "name": "ISSUER_ROLE",
      "outputs": [
        {
          "internalType": "bytes32",
          "name": "",
          "type": "bytes32"
        }
      ],
      "stateMutability": "view",
      "type": "function"
    },
    {
      "inputs": [
        {
          "internalType": "address",
          "name": "to",
          "type": "address"
        },
        {
          "internalType": "uint256",
          "name": "tokenId",
          "type": "uint256"
        }
      ],
      "name": "approve",
      "outputs": [],
      "stateMutability": "nonpayable",
      "type": "function"
    },
    {
      "inputs": [
        {
          "internalType": "address",
          "name": "owner",
          "type": "address"
        }
      ],
      "name": "balanceOf",
      "outputs": [
        {
          "internalType": "uint256",
          "name": "",
          "type": "uint256"
        }
      ],
      "stateMutability": "view",
      "type": "function"
    },
    {
      "inputs": [
        {
          "internalType": "uint256",
          "name": "tokenId",
          "type": "uint256"
        }
      ],
      "name": "getApproved",
      "outputs": [
        {
          "internalType": "address",
          "name": "",
          "type": "address"
        }
      ],
      "stateMutability": "view",
      "type": "function"
    },
    {
      "inputs": [
        {
          "internalType": "bytes32",
          "name": "role",
          "type": "bytes32"
        }
      ],
      "name": "getRoleAdmin",
      "outputs": [
        {
          "internalType": "bytes32",
          "name": "",
          "type": "bytes32"
        }
      ],
      "stateMutability": "view",
      "type": "function"
    },
    {
      "inputs": [
        {
          "internalType": "bytes32",
          "name": "role",
          "type": "bytes32"
        },
        {
          "internalType": "address",
          "name": "account",
          "type": "address"
        }
      ],
      "name": "grantRole",
      "outputs": [],
      "stateMutability": "nonpayable",
      "type": "function"
    },
    {
      "inputs": [
        {
          "internalType": "bytes32",
          "name": "role",
          "type": "bytes32"
        },
        {
          "internalType": "address",
          "name": "account",
          "type": "address"
        }
      ],
      "name": "hasRole",
      "outputs": [
        {
          "internalType": "bool",
          "name": "",
          "type": "bool"
        }
      ],
      "stateMutability": "view",
      "type": "function"
    },
    {
      "inputs": [
        {
          "internalType": "address",
          "name": "owner",
          "type": "address"
        },
        {
          "internalType": "address",
          "name": "operator",
          "type": "address"
        }
      ],
      "name": "isApprovedForAll",
      "outputs": [
        {
          "internalType": "bool",
          "name": "",
          "type": "bool"
        }
      ],
      "stateMutability": "view",
      "type": "function"
    },
    {
      "inputs": [],
      "name": "name",
      "outputs": [
        {
          "internalType": "string",
          "name": "",
          "type": "string"
        }
      ],
      "stateMutability": "view",
      "type": "function"
    },
    {
      "inputs": [
        {
          "internalType": "uint256",
          "name": "tokenId",
          "type": "uint256"
        }
      ],
      "name": "ownerOf",
      "outputs": [
        {
          "internalType": "address",
          "name": "",
          "type": "address"
        }
      ],
      "stateMutability": "view",
      "type": "function"
    },
    {
      "inputs": [
        {
          "internalType": "bytes32",
          "name": "role",
          "type": "bytes32"
        },
        {
          "internalType": "address",
          "name": "callerConfirmation",
          "type": "address"
        }
      ],
      "name": "renounceRole",
      "outputs": [],
      "stateMutability": "nonpayable",
      "type": "function"
    },
    {
      "inputs": [
        {
          "internalType": "bytes32",
          "name": "role",
          "type": "bytes32"
        },
        {
          "internalType": "address",
          "name": "account",
          "type": "address"
        }
      ],
      "name": "revokeRole",
      "outputs": [],
      "stateMutability": "nonpayable",
      "type": "function"
    },
    {
      "inputs": [
        {
          "internalType": "address",
          "name": "from",
          "type": "address"
        },
        {
          "internalType": "address",
          "name": "to",
          "type": "address"
        },
        {
          "internalType": "uint256",
          "name": "tokenId",
          "type": "uint256"
        }
      ],
      "name": "safeTransferFrom",
      "outputs": [],
      "stateMutability": "nonpayable",
      "type": "function"
    },
    {
      "inputs": [
        {
          "internalType": "address",
          "name": "from",
          "type": "address"
        },
        {
          "internalType": "address",
          "name": "to",
          "type": "address"
        },
        {
          "internalType": "uint256",
          "name": "tokenId",
          "type": "uint256"
        },
        {
          "internalType": "bytes",
          "name": "data",
          "type": "bytes"
        }
      ],
      "name": "safeTransferFrom",
      "outputs": [],
      "stateMutability": "nonpayable",
      "type": "function"
    },
    {
      "inputs": [
        {
          "internalType": "address",
          "name": "operator",
          "type": "address"
        },
        {
          "internalType": "bool",
          "name": "approved",
          "type": "bool"
        }
      ],
      "name": "setApprovalForAll",
      "outputs": [],
      "stateMutability": "nonpayable",
      "type": "function"
    },
    {
      "inputs": [],
      "name": "symbol",
      "outputs": [
        {
          "internalType": "string",
          "name": "",
          "type": "string"
        }
      ],
      "stateMutability": "view",
      "type": "function"
    },
    {
      "inputs": [
        {
          "internalType": "uint256",
          "name": "tokenId",
          "type": "uint256"
        }
      ],
      "name": "tokenURI",
      "outputs": [
        {
          "internalType": "string",
          "name": "",
          "type": "string"
        }
      ],
      "stateMutability": "view",
      "type": "function"
    },
    {
      "inputs": [
        {
          "internalType": "address",
          "name": "from",
          "type": "address"
        },
        {
          "internalType": "address",
          "name": "to",
          "type": "address"
        },
        {
          "internalType": "uint256",
          "name": "tokenId",
          "type": "uint256"
        }
      ],
      "name": "transferFrom",
      "outputs": [],
      "stateMutability": "nonpayable",
      "type": "function"
    },
    {
      "inputs": [
        {
          "internalType": "address",
          "name": "to",
          "type": "address"
        },
        {
          "internalType": "uint8",
          "name": "credentialType",
          "type": "uint8"
        },
        {
          "internalType": "string",
          "name": "title",
          "type": "string"
        },
        {
          "internalType": "string",
          "name": "institution",
          "type": "string"
        },
        {
          "internalType": "uint64",
          "name": "expiryDate",
          "type": "uint64"
        },
        {
          "internalType": "bytes32",
          "name": "credentialHash",
          "type": "bytes32"
        },
        {
          "internalType": "string",
          "name": "ipfsURI",
          "type": "string"
        }
      ],
      "name": "issueCredential",
      "outputs": [
        {
          "internalType": "uint256",
          "name": "tokenId",
          "type": "uint256"
        }
      ],
      "stateMutability": "nonpayable",
      "type": "function"
    },
    {
      "inputs": [
        {
          "internalType": "uint256",
          "name": "tokenId",
          "type": "uint256"
        },
        {
          "internalType": "string",
          "name": "reason",
          "type": "string"
        }
      ],
      "name": "revokeCredential",
      "outputs": [],
      "stateMutability": "nonpayable",
      "type": "function"
    },
    {
      "inputs": [
        {
          "internalType": "uint256",
          "name": "tokenId",
          "type": "uint256"
        }
      ],
      "name": "isValid",
      "outputs": [
        {
          "internalType": "bool",
          "name": "",
          "type": "bool"
        }
      ],
      "stateMutability": "view",
      "type": "function"
    },
    {
      "inputs": [
        {
          "internalType": "uint256",
          "name": "tokenId",
          "type": "uint256"
        }
      ],
      "name": "getCredential",
      "outputs": [
        {
          "components": [
            {
              "internalType": "address",
              "name": "issuer",
              "type": "address"
            },
            {
              "internalType": "address",
              "name": "recipient",
              "type": "address"
            },
            {
              "internalType": "enum StudentRecordNFT.CredentialType",
              "name": "ctype",
              "type": "uint8"
            },
            {
              "internalType": "string",
              "name": "title",
              "type": "string"
            },
            {
              "internalType": "string",
              "name": "institution",
              "type": "string"
            },
            {
              "internalType": "uint64",
              "name": "issueDate",
              "type": "uint64"
            },
            {
              "internalType": "uint64",
              "name": "expiryDate",
              "type": "uint64"
            },
            {
              "internalType": "bytes32",
              "name": "credentialHash",
              "type": "bytes32"
            },
            {
              "internalType": "bool",
              "name": "revoked",
              "type": "bool"
            },
            {
              "internalType": "string",
              "name": "ipfsURI",
              "type": "string"
            },
            {
              "internalType": "string",
              "name": "revocationReason",
              "type": "string"
            }
          ],
          "internalType": "struct StudentRecordNFT.Credential",
          "name": "",
          "type": "tuple"
        }
      ],
      "stateMutability": "view",
      "type": "function"
    },
    {
      "inputs": [],
      "name": "totalCredentials",
      "outputs": [
        {
          "internalType": "uint256",
          "name": "",
          "type": "uint256"
        }
      ],
      "stateMutability": "view",
      "type": "function"
    },
    {
      "inputs": [
        {
          "internalType": "address",
          "name": "account",
          "type": "address"
        }
      ],
      "name": "isIssuer",
      "outputs": [
        {
          "internalType": "bool",
          "name": "",
          "type": "bool"
        }
      ],
      "stateMutability": "view",
      "type": "function"
    },
    {
      "inputs": [
        {
          "internalType": "address",
          "name": "account",
          "type": "address"
        }
      ],
      "name": "grantIssuerRole",
      "outputs": [],
      "stateMutability": "nonpayable",
      "type": "function"
    },
    {
      "inputs": [
        {
          "internalType": "bytes4",
          "name": "interfaceId",
          "type": "bytes4"
        }
      ],
      "name": "supportsInterface",
      "outputs": [
        {
          "internalType": "bool",
          "name": "",
          "type": "bool"
        }
      ],
      "stateMutability": "view",
      "type": "function"
    }
  ],
  "bytecode": "0x608060405234801562000010575f80fd5b506040518060400160405280601d81526020017f5363686f6c61722054727573742053747564656e74205265636f7264730000008152506040518060400160405280600481526020016329aa29a960e11b815250815f908162000074919062000218565b50600162000083828262000218565b506200009491505f905033620000c8565b50620000c17f114e74f6ea3bd819998f78687bfcb11b140da08e9b7d222fa9c1f1ba1f2aa12233620000c8565b50620002e0565b5f8281526006602090815260408083206001600160a01b038516845290915281205460ff166200016f575f8381526006602090815260408083206001600160a01b03861684529091529020805460ff19166001179055620001263390565b6001600160a01b0316826001600160a01b0316847f2f8788117e7eff1d82e926ec794901d17c78024a50270940304540a733656f0d60405160405180910390a450600162000172565b505f5b92915050565b634e487b7160e01b5f52604160045260245ffd5b600181811c90821680620001a157607f821691505b602082108103620001c057634e487b7160e01b5f52602260045260245ffd5b50919050565b601f82111562000213575f81815260208120601f850160051c81016020861015620001ee5750805b601f850160051c820191505b818110156200020f57828155600101620001fa565b5050505b505050565b81516001600160401b0381111562000234576200023462000178565b6200024c816200024584546200018c565b84620001c6565b602080601f83116001811462000282575f84156200026a5750858301515b5f19600386901b1c1916600185901b1785556200020f565b5f85815260208120601f198616915b82811015620002b25788860151825594840194600190910190840162000291565b5085821015620002d057878501515f19600388901b60f8161c191681555b5050505050600190811b01905550565b6122f780620002ee5f395ff3fe608060405234801561000f575f80fd5b50600436106101a1575f3560e01c8063877b9a67116100f3578063a5c8d38d11610093578063c87b56dd1161006e578063c87b56dd14610390578063d547741f146103a3578063e985e9c5146103b6578063f577a500146103c9575f80fd5b8063a5c8d38d14610357578063b88d4fde1461036a578063bb1d1a0f1461037d575f80fd5b8063957a3205116100ce578063957a32051461032257806395d89b4114610335578063a217fddf1461033d578063a22cb46514610344575f80fd5b8063877b9a67146102dc5780638dd18d2d146102ef57806391d148541461030f575f80fd5b8063248a9ca31161015e57806342842e0e1161013957806342842e0e1461028f5780636352211e146102a257806370a08231146102b557806382aefa24146102c8575f80fd5b8063248a9ca3146102475780632f2ff15d1461026957806336568abe1461027c575f80fd5b806301ffc9a7146101a557806306fdde03146101cd578063081812fc146101e2578063095ea7b31461020d5780631513d62b1461022257806323b872dd14610234575b5f80fd5b6101b86101b3366004611af9565b6103dc565b60405190151581526020015b60405180910390f35b6101d56103ec565b6040516101c49190611b61565b6101f56101f0366004611b73565b61047b565b6040516001600160a01b0390911681526020016101c4565b61022061021b366004611ba5565b6104a2565b005b6007545b6040519081526020016101c4565b610220610242366004611bcd565b6104b1565b610226610255366004611b73565b5f9081526006602052604090206001015490565b610220610277366004611c06565b61053f565b61022061028a366004611c06565b610563565b61022061029d366004611bcd565b61059b565b6101f56102b0366004611b73565b6105b5565b6102266102c3366004611c30565b6105bf565b6102265f805160206122a283398151915281565b6101b86102ea366004611c30565b610604565b6103026102fd366004611b73565b61061c565b6040516101c49190611c7d565b6101b861031d366004611c06565b6109a0565b610220610330366004611e3f565b6109ca565b6101d5610ae9565b6102265f81565b610220610352366004611e82565b610af8565b610220610365366004611c30565b610b03565b610220610378366004611ebb565b610b24565b61022661038b366004611f47565b610b3c565b6101d561039e366004611b73565b610e42565b6102206103b1366004611c06565b610eb3565b6101b86103c4366004612009565b610ed7565b6101b86103d7366004611b73565b610f04565b5f6103e682611277565b92915050565b60605f80546103fa90612031565b80601f016020809104026020016040519081016040528092919081815260200182805461042690612031565b80156104715780601f1061044857610100808354040283529160200191610471565b820191905f5260205f20905b81548152906001019060200180831161045457829003601f168201915b5050505050905090565b5f6104858261129b565b505f828152600460205260409020546001600160a01b03166103e6565b6104ad8282336112d3565b5050565b6001600160a01b0382166104df57604051633250574960e11b81525f60048201526024015b60405180910390fd5b5f6104eb8383336112e0565b9050836001600160a01b0316816001600160a01b031614610539576040516364283d7b60e01b81526001600160a01b03808616600483015260248201849052821660448201526064016104d6565b50505050565b5f82815260066020526040902060010154610559816113d2565b61053983836113df565b6001600160a01b038116331461058c5760405163334bd91960e11b815260040160405180910390fd5b6105968282611470565b505050565b61059683838360405180602001604052805f815250610b24565b5f6103e68261129b565b5f6001600160a01b0382166105e9576040516322718ad960e21b81525f60048201526024016104d6565b506001600160a01b03165f9081526003602052604090205490565b5f6103e65f805160206122a2833981519152836109a0565b61067760408051610160810182525f8082526020820181905290918201908152606060208201819052604082018190525f8183018190526080830181905260a0830181905260c083015260e082018190526101009091015290565b5f828152600260205260409020546001600160a01b03166106aa5760405162461bcd60e51b81526004016104d690612069565b5f8281526008602090815260409182902082516101608101845281546001600160a01b03908116825260018301549081169382019390935292909190830190600160a01b900460ff16600281111561070457610704611c49565b600281111561071557610715611c49565b815260200160028201805461072990612031565b80601f016020809104026020016040519081016040528092919081815260200182805461075590612031565b80156107a05780601f10610777576101008083540402835291602001916107a0565b820191905f5260205f20905b81548152906001019060200180831161078357829003601f168201915b505050505081526020016003820180546107b990612031565b80601f01602080910402602001604051908101604052809291908181526020018280546107e590612031565b80156108305780601f1061080757610100808354040283529160200191610830565b820191905f5260205f20905b81548152906001019060200180831161081357829003601f168201915b505050918352505060048201546001600160401b038082166020840152600160401b90910416604082015260058201546060820152600682015460ff161515608082015260078201805460a09092019161088990612031565b80601f01602080910402602001604051908101604052809291908181526020018280546108b590612031565b80156109005780601f106108d757610100808354040283529160200191610900565b820191905f5260205f20905b8154815290600101906020018083116108e357829003601f168201915b5050505050815260200160088201805461091990612031565b80601f016020809104026020016040519081016040528092919081815260200182805461094590612031565b80156109905780601f1061096757610100808354040283529160200191610990565b820191905f5260205f20905b81548152906001019060200180831161097357829003601f168201915b5050505050815250509050919050565b5f9182526006602090815260408084206001600160a01b0393909316845291905290205460ff1690565b5f805160206122a28339815191526109e1816113d2565b5f838152600260205260409020546001600160a01b0316610a145760405162461bcd60e51b81526004016104d690612069565b5f8381526008602052604090206006015460ff1615610a755760405162461bcd60e51b815260206004820152601a60248201527f43726564656e7469616c20616c7265616479207265766f6b656400000000000060448201526064016104d6565b5f83815260086020819052604090912060068101805460ff1916600117905501610a9f83826120e5565b50336001600160a01b0316837f0d62db882e445cad5bbd6433385d111d3c867b289070ecbc8da5a2c4338ab7d58442604051610adc9291906121a0565b60405180910390a3505050565b6060600180546103fa90612031565b6104ad3383836114db565b5f610b0d816113d2565b6104ad5f805160206122a28339815191528361053f565b610b2f8484846104b1565b6105393385858585611571565b5f5f805160206122a2833981519152610b54816113d2565b6001600160a01b038916610b9e5760405162461bcd60e51b8152602060048201526011602482015270125b9d985b1a59081c9958da5c1a595b9d607a1b60448201526064016104d6565b600260ff89161115610bf25760405162461bcd60e51b815260206004820152601760248201527f496e76616c69642063726564656e7469616c207479706500000000000000000060448201526064016104d6565b60078054925082905f610c04836121ca565b9190505550610c138983611699565b60408051610160810182523381526001600160a01b038b16602082015290810160ff8a166002811115610c4857610c48611c49565b6002811115610c5957610c59611c49565b815260208082018a905260408083018a90526001600160401b0342811660608501528916608084015260a083018890525f60c0840181905260e0840188905281518084018352818152610100909401939093528583526008825291829020835181546001600160a01b039182166001600160a01b0319918216178355928501516001830180549190921693811684178255938501519193919290916001600160a81b03191617600160a01b836002811115610d1657610d16611c49565b021790555060608201516002820190610d2f90826120e5565b5060808201516003820190610d4490826120e5565b5060a082015160048201805460c08501516001600160401b03908116600160401b026fffffffffffffffffffffffffffffffff1990921693169290921791909117905560e0820151600582015561010082015160068201805491151560ff199092169190911790556101208201516007820190610dc190826120e5565b506101408201516008820190610dd790826120e5565b50339150506001600160a01b038a16837f4536f4b3c191d0c4c9581f6ed6843b435646e76802e1e2afd545c264969a9e2260ff8c166002811115610e1d57610e1d611c49565b8b42604051610e2e939291906121ee565b60405180910390a450979650505050505050565b6060610e4d8261129b565b505f610e6360408051602081019091525f815290565b90505f815111610e815760405180602001604052805f815250610eac565b80610e8b846116b2565b604051602001610e9c929190612226565b6040516020818303038152906040525b9392505050565b5f82815260066020526040902060010154610ecd816113d2565b6105398383611470565b6001600160a01b039182165f90815260056020908152604080832093909416825291909152205460ff1690565b5f818152600260205260408120546001600160a01b0316610f375760405162461bcd60e51b81526004016104d690612069565b5f82815260086020908152604080832081516101608101835281546001600160a01b039081168252600183015490811694820194909452929091830190600160a01b900460ff166002811115610f8f57610f8f611c49565b6002811115610fa057610fa0611c49565b8152602001600282018054610fb490612031565b80601f0160208091040260200160405190810160405280929190818152602001828054610fe090612031565b801561102b5780601f106110025761010080835404028352916020019161102b565b820191905f5260205f20905b81548152906001019060200180831161100e57829003601f168201915b5050505050815260200160038201805461104490612031565b80601f016020809104026020016040519081016040528092919081815260200182805461107090612031565b80156110bb5780601f10611092576101008083540402835291602001916110bb565b820191905f5260205f20905b81548152906001019060200180831161109e57829003601f168201915b505050918352505060048201546001600160401b038082166020840152600160401b90910416604082015260058201546060820152600682015460ff161515608082015260078201805460a09092019161111490612031565b80601f016020809104026020016040519081016040528092919081815260200182805461114090612031565b801561118b5780601f106111625761010080835404028352916020019161118b565b820191905f5260205f20905b81548152906001019060200180831161116e57829003601f168201915b505050505081526020016008820180546111a490612031565b80601f01602080910402602001604051908101604052809291908181526020018280546111d090612031565b801561121b5780601f106111f25761010080835404028352916020019161121b565b820191905f5260205f20905b8154815290600101906020018083116111fe57829003601f168201915b50505050508152505090508061010001511561123957505f92915050565b60c08101516001600160401b0316158015906112615750428160c001516001600160401b0316105b1561126e57505f92915050565b50600192915050565b5f6001600160e01b03198216637965db0b60e01b14806103e657506103e682611741565b5f818152600260205260408120546001600160a01b0316806103e657604051637e27328960e01b8152600481018490526024016104d6565b6105968383836001611790565b5f828152600260205260408120546001600160a01b039081169083161561130c5761130c818486611894565b6001600160a01b03811615611346576113275f855f80611790565b6001600160a01b0381165f90815260036020526040902080545f190190555b6001600160a01b03851615611374576001600160a01b0385165f908152600360205260409020805460010190555b5f8481526002602052604080822080546001600160a01b0319166001600160a01b0389811691821790925591518793918516917fddf252ad1be2c89b69c2b068fc378daa952ba7f163c4a11628f55a4df523b3ef91a4949350505050565b6113dc81336118f8565b50565b5f6113ea83836109a0565b611469575f8381526006602090815260408083206001600160a01b03861684529091529020805460ff191660011790556114213390565b6001600160a01b0316826001600160a01b0316847f2f8788117e7eff1d82e926ec794901d17c78024a50270940304540a733656f0d60405160405180910390a45060016103e6565b505f6103e6565b5f61147b83836109a0565b15611469575f8381526006602090815260408083206001600160a01b0386168085529252808320805460ff1916905551339286917ff6391f5c32d9c69d2a47ea670b442974b53935d1edc7fd64eb21e047a839171b9190a45060016103e6565b6001600160a01b03821661150d57604051630b61174360e31b81526001600160a01b03831660048201526024016104d6565b6001600160a01b038381165f81815260056020908152604080832094871680845294825291829020805460ff191686151590811790915591519182527f17307eab39ab6107e8899845ad3d59bd9653f200f220920489ca2b5937696c319101610adc565b6001600160a01b0383163b1561169257604051630a85bd0160e11b81526001600160a01b0384169063150b7a02906115b3908890889087908790600401612254565b6020604051808303815f875af19250505080156115ed575060408051601f3d908101601f191682019092526115ea91810190612286565b60015b611654573d80801561161a576040519150601f19603f3d011682016040523d82523d5f602084013e61161f565b606091505b5080515f0361164c57604051633250574960e11b81526001600160a01b03851660048201526024016104d6565b805160208201fd5b6001600160e01b03198116630a85bd0160e11b1461169057604051633250574960e11b81526001600160a01b03851660048201526024016104d6565b505b5050505050565b6104ad828260405180602001604052805f815250611931565b60605f6116be83611948565b60010190505f816001600160401b038111156116dc576116dc611d9b565b6040519080825280601f01601f191660200182016040528015611706576020820181803683370190505b5090508181016020015b5f19016f181899199a1a9b1b9c1cb0b131b232b360811b600a86061a8153600a850494508461171057509392505050565b5f6001600160e01b031982166380ac58cd60e01b148061177157506001600160e01b03198216635b5e139f60e01b145b806103e657506301ffc9a760e01b6001600160e01b03198316146103e6565b80806117a457506001600160a01b03821615155b15611865575f6117b38461129b565b90506001600160a01b038316158015906117df5750826001600160a01b0316816001600160a01b031614155b80156117f257506117f08184610ed7565b155b1561181b5760405163a9fbf51f60e01b81526001600160a01b03841660048201526024016104d6565b81156118635783856001600160a01b0316826001600160a01b03167f8c5be1e5ebec7d5bd14f71427d1e84f3dd0314c0f7b2291e5b200ac8c7c3b92560405160405180910390a45b505b50505f90815260046020526040902080546001600160a01b0319166001600160a01b0392909216919091179055565b61189f838383611a1f565b610596576001600160a01b0383166118cd57604051637e27328960e01b8152600481018290526024016104d6565b60405163177e802f60e01b81526001600160a01b0383166004820152602481018290526044016104d6565b61190282826109a0565b6104ad5760405163e2517d3f60e01b81526001600160a01b0382166004820152602481018390526044016104d6565b61193b8383611a83565b610596335f858585611571565b5f8072184f03e93ff9f4daa797ed6e38ed64bf6a1f0160401b83106119865772184f03e93ff9f4daa797ed6e38ed64bf6a1f0160401b830492506040015b6d04ee2d6d415b85acef810000000083106119b2576d04ee2d6d415b85acef8100000000830492506020015b662386f26fc1000083106119d057662386f26fc10000830492506010015b6305f5e10083106119e8576305f5e100830492506008015b61271083106119fc57612710830492506004015b60648310611a0e576064830492506002015b600a83106103e65760010192915050565b5f6001600160a01b03831615801590611a7b5750826001600160a01b0316846001600160a01b03161480611a585750611a588484610ed7565b80611a7b57505f828152600460205260409020546001600160a01b038481169116145b949350505050565b6001600160a01b038216611aac57604051633250574960e11b81525f60048201526024016104d6565b5f611ab883835f6112e0565b90506001600160a01b03811615610596576040516339e3563760e11b81525f60048201526024016104d6565b6001600160e01b0319811681146113dc575f80fd5b5f60208284031215611b09575f80fd5b8135610eac81611ae4565b5f5b83811015611b2e578181015183820152602001611b16565b50505f910152565b5f8151808452611b4d816020860160208601611b14565b601f01601f19169290920160200192915050565b602081525f610eac6020830184611b36565b5f60208284031215611b83575f80fd5b5035919050565b80356001600160a01b0381168114611ba0575f80fd5b919050565b5f8060408385031215611bb6575f80fd5b611bbf83611b8a565b946020939093013593505050565b5f805f60608486031215611bdf575f80fd5b611be884611b8a565b9250611bf660208501611b8a565b9150604084013590509250925092565b5f8060408385031215611c17575f80fd5b82359150611c2760208401611b8a565b90509250929050565b5f60208284031215611c40575f80fd5b610eac82611b8a565b634e487b7160e01b5f52602160045260245ffd5b60038110611c7957634e487b7160e01b5f52602160045260245ffd5b9052565b60208152611c976020820183516001600160a01b03169052565b5f6020830151611cb260408401826001600160a01b03169052565b506040830151611cc56060840182611c5d565b506060830151610160806080850152611ce2610180850183611b36565b91506080850151601f19808685030160a0870152611d008483611b36565b935060a08701519150611d1e60c08701836001600160401b03169052565b60c08701516001600160401b03811660e0880152915060e0870151610100878101919091528701519150610120611d588188018415159052565b80880151925050610140818786030181880152611d758584611b36565b908801518782039092018488015293509050611d918382611b36565b9695505050505050565b634e487b7160e01b5f52604160045260245ffd5b5f6001600160401b0380841115611dc857611dc8611d9b565b604051601f8501601f19908116603f01168101908282118183101715611df057611df0611d9b565b81604052809350858152868686011115611e08575f80fd5b858560208301375f602087830101525050509392505050565b5f82601f830112611e30575f80fd5b610eac83833560208501611daf565b5f8060408385031215611e50575f80fd5b8235915060208301356001600160401b03811115611e6c575f80fd5b611e7885828601611e21565b9150509250929050565b5f8060408385031215611e93575f80fd5b611e9c83611b8a565b915060208301358015158114611eb0575f80fd5b809150509250929050565b5f805f8060808587031215611ece575f80fd5b611ed785611b8a565b9350611ee560208601611b8a565b92506040850135915060608501356001600160401b03811115611f06575f80fd5b8501601f81018713611f16575f80fd5b611f2587823560208401611daf565b91505092959194509250565b80356001600160401b0381168114611ba0575f80fd5b5f805f805f805f60e0888a031215611f5d575f80fd5b611f6688611b8a565b9650602088013560ff81168114611f7b575f80fd5b955060408801356001600160401b0380821115611f96575f80fd5b611fa28b838c01611e21565b965060608a0135915080821115611fb7575f80fd5b611fc38b838c01611e21565b9550611fd160808b01611f31565b945060a08a0135935060c08a0135915080821115611fed575f80fd5b50611ffa8a828b01611e21565b91505092959891949750929550565b5f806040838503121561201a575f80fd5b61202383611b8a565b9150611c2760208401611b8a565b600181811c9082168061204557607f821691505b60208210810361206357634e487b7160e01b5f52602260045260245ffd5b50919050565b60208082526019908201527f43726564656e7469616c20646f6573206e6f7420657869737400000000000000604082015260600190565b601f821115610596575f81815260208120601f850160051c810160208610156120c65750805b601f850160051c820191505b81811015611690578281556001016120d2565b81516001600160401b038111156120fe576120fe611d9b565b6121128161210c8454612031565b846120a0565b602080601f831160018114612145575f841561212e5750858301515b5f19600386901b1c1916600185901b178555611690565b5f85815260208120601f198616915b8281101561217357888601518255948401946001909101908401612154565b508582101561219057878501515f19600388901b60f8161c191681555b5050505050600190811b01905550565b604081525f6121b26040830185611b36565b90506001600160401b03831660208301529392505050565b5f600182016121e757634e487b7160e01b5f52601160045260245ffd5b5060010190565b6121f88185611c5d565b606060208201525f61220d6060830185611b36565b90506001600160401b0383166040830152949350505050565b5f8351612237818460208801611b14565b83519083019061224b818360208801611b14565b01949350505050565b6001600160a01b03858116825284166020820152604081018390526080606082018190525f90611d9190830184611b36565b5f60208284031215612296575f80fd5b8151610eac81611ae456fe114e74f6ea3bd819998f78687bfcb11b140da08e9b7d222fa9c1f1ba1f2aa122a26469706673582212207035251683e1e3a1d72f0267d0115f8aede523cb128158270e53350e990dedbb64736f6c63430008140033",
  "immutableReferences": {},
  "source": "// SPDX-License-Identifier: MIT\r\npragma solidity ^0.8.20;\r\n\r\nimport \"@openzeppelin/contracts/token/ERC721/ERC721.sol\";\r\nimport \"@openzeppelin/contracts/access/AccessControl.sol\";\r\n\r\ncontract StudentRecordNFT is ERC721, AccessControl {\r\n    bytes32 public constant ISSUER_ROLE = keccak256(\"ISSUER_ROLE\");\r\n\r\n    enum CredentialType {\r\n        CourseCompletion,\r\n        CompetitionAward,\r\n        ProjectValidation\r\n    }\r\n\r\n    struct Credential {\r\n        address issuer;\r\n        address recipient;\r\n        CredentialType ctype;\r\n        string title;\r\n        string institution;\r\n        uint64 issueDate;\r\n        uint64 expiryDate;\r\n        bytes32 credentialHash;\r\n        bool revoked;\r\n        string ipfsURI;\r\n        string revocationReason;\r\n    }\r\n\r\n    uint256 private _nextTokenId;\r\n    mapping(uint256 => Credential) private _credentials;\r\n\r\n    event CredentialIssued(\r\n        uint256 indexed tokenId,\r\n        address indexed recipient,\r\n        address indexed issuer,\r\n        CredentialType ctype,\r\n        string title,\r\n        uint64 issueDate\r\n    );\r\n\r\n    event CredentialRevoked(\r\n        uint256 indexed tokenId,\r\n        address indexed revokedBy,\r\n        string reason,\r\n        uint64 revokedAt\r\n    );\r\n\r\n    constructor() ERC721(\"Scholar Trust Student Records\", \"STSR\") {\r\n        _grantRole(DEFAULT_ADMIN_ROLE, msg.sender);\r\n        _grantRole(ISSUER_ROLE, msg.sender);\r\n    }\r\n\r\n    function issueCredential(\r\n        address to,\r\n        uint8 credentialType,\r\n        string memory title,\r\n        string memory institution,\r\n        uint64 expiryDate,\r\n        bytes32 credentialHash,\r\n        string memory ipfsURI\r\n    ) external onlyRole(ISSUER_ROLE) returns (uint256 tokenId) {\r\n        require(to != address(0), \"Invalid recipient\");\r\n        require(\r\n            credentialType <= uint8(CredentialType.ProjectValidation),\r\n            \"Invalid credential type\"\r\n        );\r\n\r\n        tokenId = _nextTokenId;\r\n        _nextTokenId++;\r\n\r\n        _safeMint(to, tokenId);\r\n\r\n        _credentials[tokenId] = Credential({\r\n            issuer: msg.sender,\r\n            recipient: to,\r\n            ctype: CredentialType(credentialType),\r\n            title: title,\r\n            institution: institution,\r\n            issueDate: uint64(block.timestamp),\r\n            expiryDate: expiryDate,\r\n            credentialHash: credentialHash,\r\n            revoked: false,\r\n            ipfsURI: ipfsURI,\r\n            revocationReason: \"\"\r\n        });\r\n\r\n        emit CredentialIssued(\r\n            tokenId,\r\n            to,\r\n            msg.sender,\r\n            CredentialType(credentialType),\r\n            title,\r\n            uint64(block.timestamp)\r\n        );\r\n    }\r\n\r\n    function revokeCredential(uint256 tokenId, string memory reason)\r\n        external\r\n        onlyRole(ISSUER_ROLE)\r\n    {\r\n        require(_ownerOf(tokenId) != address(0), \"Credential does not exist\");\r\n        require(!_credentials[tokenId].revoked, \"Credential already revoked\");\r\n\r\n        _credentials[tokenId].revoked = true;\r\n        _credentials[tokenId].revocationReason = reason;\r\n\r\n        emit CredentialRevoked(\r\n            tokenId,\r\n            msg.sender,\r\n            reason,\r\n            uint64(block.timestamp)\r\n        );\r\n    }\r\n\r\n    function isValid(uint256 tokenId) external view returns (bool) {\r\n        require(_ownerOf(tokenId) != address(0), \"Credential does not exist\");\r\n\r\n        Credential memory c = _credentials[tokenId];\r\n\r\n        if (c.revoked) return false;\r\n        if (c.expiryDate != 0 && c.expiryDate < block.timestamp) return false;\r\n\r\n        return true;\r\n    }\r\n\r\n    function getCredential(uint256 tokenId)\r\n        external\r\n        view\r\n        returns (Credential memory)\r\n    {\r\n        require(_ownerOf(tokenId) != address(0), \"Credential does not exist\");\r\n        return _credentials[tokenId];\r\n    }\r\n\r\n    function totalCredentials() external view returns (uint256) {\r\n        return _nextTokenId;\r\n    }\r\n\r\n    function isIssuer(address account) external view returns (bool) {\r\n        return hasRole(ISSUER_ROLE, account);\r\n    }\r\n\r\n    function grantIssuerRole(address account)\r\n        external\r\n        onlyRole(DEFAULT_ADMIN_ROLE)\r\n    {\r\n        grantRole(ISSUER_ROLE, account);\r\n    }\r\n\r\n    function supportsInterface(bytes4 interfaceId)\r\n        public\r\n        view\r\n        override(ERC721, AccessControl)\r\n        returns (bool)\r\n    {\r\n        return super.supportsInterface(interfaceId);\r\n    }\r\n}",
  "sourcePath": "D:\\Projects\\capstone\\Blockchain-Based-Credential-Verification\\contracts\\StudentRecordNFT.sol",
  "compiler": {
    "name": "solc",
    "version": "0.8.20+commit.a1b79de6.Emscripten.clang"
  },
  "schemaVersion": "3.4.16",
  "updatedAt": "2026-02-24T18:38:40.063Z",
  "devdoc": {
    "errors": {
      "AccessControlBadConfirmation()": [
        {
          "details": "The caller of a function is not the expected one. NOTE: Don't confuse with {AccessControlUnauthorizedAccount}."
        }
      ],
      "AccessControlUnauthorizedAccount(address,bytes32)": [
        {
          "details": "The `account` is missing a role."
        }
      ],
      "ERC721IncorrectOwner(address,uint256,address)": [
        {
          "details": "Indicates an error related to the ownership over a particular token. Used in transfers.",
          "params": {
            "owner": "Address of the current owner of a token.",
            "sender": "Address whose tokens are being transferred.",
            "tokenId": "Identifier number of a token."
          }
        }
      ],
      "ERC721InsufficientApproval(address,uint256)": [
        {
          "details": "Indicates a failure with the `operator`s approval. Used in transfers.",
          "params": {
            "operator": "Address that may be allowed to operate on tokens without being their owner.",
            "tokenId": "Identifier number of a token."
          }
        }
      ],
      "ERC721InvalidApprover(address)": [
        {
          "details": "Indicates a failure with the `approver` of a token to be approved. Used in approvals.",
          "params": {
            "approver": "Address initiating an approval operation."
          }
        }
      ],
      "ERC721InvalidOperator(address)": [
        {
          "details": "Indicates a failure with the `operator` to be approved. Used in approvals.",
          "params": {
            "operator": "Address that may be allowed to operate on tokens without being their owner."
          }
        }
      ],
      "ERC721InvalidOwner(address)": [
        {
          "details": "Indicates that an address can't be an owner. For example, `address(0)` is a forbidden owner in ERC-20. Used in balance queries.",
          "params": {
            "owner": "Address of the current owner of a token."
          }
        }
      ],
      "ERC721InvalidReceiver(address)": [
        {
          "details": "Indicates a failure with the token `receiver`. Used in transfers.",
          "params": {
            "receiver": "Address to which tokens are being transferred."
          }
        }
      ],
      "ERC721InvalidSender(address)": [
        {
          "details": "Indicates a failure with the token `sender`. Used in transfers.",
          "params": {
            "sender": "Address whose tokens are being transferred."
          }
        }
      ],
      "ERC721NonexistentToken(uint256)": [
        {
          "details": "Indicates a `tokenId` whose `owner` is the zero address.",
          "params": {
            "tokenId": "Identifier number of a token."
          }
        }
      ]
    },
    "events": {
      "Approval(address,address,uint256)": {
        "details": "Emitted when `owner` enables `approved` to manage the `tokenId` token."
      },
      "ApprovalForAll(address,address,bool)": {
        "details": "Emitted when `owner` enables or disables (`approved`) `operator` to manage all of its assets."
      },
      "RoleAdminChanged(bytes32,bytes32,bytes32)": {
        "details": "Emitted when `newAdminRole` is set as ``role``'s admin role, replacing `previousAdminRole` `DEFAULT_ADMIN_ROLE` is the starting admin for all roles, despite {RoleAdminChanged} not being emitted to signal this."
      },
      "RoleGranted(bytes32,address,address)": {
        "details": "Emitted when `account` is granted `role`. `sender` is the account that originated the contract call. This account bears the admin role (for the granted role). Expected in cases where the role was granted using the internal {AccessControl-_grantRole}."
      },
      "RoleRevoked(bytes32,address,address)": {
        "details": "Emitted when `account` is revoked `role`. `sender` is the account that originated the contract call:   - if using `revokeRole`, it is the admin role bearer   - if using `renounceRole`, it is the role bearer (i.e. `account`)"
      },
      "Transfer(address,address,uint256)": {
        "details": "Emitted when `tokenId` token is transferred from `from` to `to`."
      }
    },
    "kind": "dev",
    "methods": {
      "approve(address,uint256)": {
        "details": "Gives permission to `to` to transfer `tokenId` token to another account. The approval is cleared when the token is transferred. Only a single account can be approved at a time, so approving the zero address clears previous approvals. Requirements: - The caller must own the token or be an approved operator. - `tokenId` must exist. Emits an {Approval} event."
      },
      "balanceOf(address)": {
        "details": "Returns the number of tokens in ``owner``'s account."
      },
      "getApproved(uint256)": {
        "details": "Returns the account approved for `tokenId` token. Requirements: - `tokenId` must exist."
      },
      "getRoleAdmin(bytes32)": {
        "details": "Returns the admin role that controls `role`. See {grantRole} and {revokeRole}. To change a role's admin, use {_setRoleAdmin}."
      },
      "grantRole(bytes32,address)": {
        "details": "Grants `role` to `account`. If `account` had not been already granted `role`, emits a {RoleGranted} event. Requirements: - the caller must have ``role``'s admin role. May emit a {RoleGranted} event."
      },
      "hasRole(bytes32,address)": {
        "details": "Returns `true` if `account` has been granted `role`."
      },
      "isApprovedForAll(address,address)": {
        "details": "Returns if the `operator` is allowed to manage all of the assets of `owner`. See {setApprovalForAll}"
      },
      "name()": {
        "details": "Returns the token collection name."
      },
      "ownerOf(uint256)": {
        "details": "Returns the owner of the `tokenId` token. Requirements: - `tokenId` must exist."
      },
      "renounceRole(bytes32,address)": {
        "details": "Revokes `role` from the calling account. Roles are often managed via {grantRole} and {revokeRole}: this function's purpose is to provide a mechanism for accounts to lose their privileges if they are compromised (such as when a trusted device is misplaced). If the calling account had been revoked `role`, emits a {RoleRevoked} event. Requirements: - the caller must be `callerConfirmation`. May emit a {RoleRevoked} event."
      },
      "revokeRole(bytes32,address)": {
        "details": "Revokes `role` from `account`. If `account` had been granted `role`, emits a {RoleRevoked} event. Requirements: - the caller must have ``role``'s admin role. May emit a {RoleRevoked} event."
      },
      "safeTransferFrom(address,address,uint256)": {
        "details": "Safely transfers `tokenId` token from `from` to `to`, checking first that contract recipients are aware of the ERC-721 protocol to prevent tokens from being forever locked. Requirements: - `from` cannot be the zero address. - `to` cannot be the zero address. - `tokenId` token must exist and be owned by `from`. - If the caller is not `from`, it must have been allowed to move this token by either {approve} or   {setApprovalForAll}. - If `to` refers to a smart contract, it must implement {IERC721Receiver-onERC721Received}, which is called upon   a safe transfer. Emits a {Transfer} event."
      },
      "safeTransferFrom(address,address,uint256,bytes)": {
        "details": "Safely transfers `tokenId` token from `from` to `to`. Requirements: - `from` cannot be the zero address. - `to` cannot be the zero address. - `tokenId` token must exist and be owned by `from`. - If the caller is not `from`, it must be approved to move this token by either {approve} or {setApprovalForAll}. - If `to` refers to a smart contract, it must implement {IERC721Receiver-onERC721Received}, which is called upon   a safe transfer. Emits a {Transfer} event."
      },
      "setApprovalForAll(address,bool)": {
        "details": "Approve or remove `operator` as an operator for the caller. Operators can call {transferFrom} or {safeTransferFrom} for any token owned by the caller. Requirements: - The `operator` cannot be the address zero. Emits an {ApprovalForAll} event."
      },
      "symbol()": {
        "details": "Returns the token collection symbol."
      },
      "tokenURI(uint256)": {
        "details": "Returns the Uniform Resource Identifier (URI) for `tokenId` token."
      },
      "transferFrom(address,address,uint256)": {
        "details": "Transfers `tokenId` token from `from` to `to`. WARNING: Note that the caller is responsible to confirm that the recipient is capable of receiving ERC-721 or else they may be permanently lost. Usage of {safeTransferFrom} prevents loss, though the caller must understand this adds an external call which potentially creates a reentrancy vulnerability. Requirements: - `from` cannot be the zero address. - `to` cannot be the zero address. - `tokenId` token must be owned by `from`. - If the caller is not `from`, it must be approved to move this token by either {approve} or {setApprovalForAll}. Emits a {Transfer} event."
      }
    },
    "version": 1
  },
  "userdoc": {
    "kind": "user",
    "methods": {},
    "version": 1
  }
}